{
  "contractName": "owned",
  "abi": [
    {
      "constant": true,
      "inputs": [],
      "name": "owner",
      "outputs": [
        {
          "name": "",
          "type": "address"
        }
      ],
      "payable": false,
      "stateMutability": "view",
      "type": "function"
    },
    {
      "constant": false,
      "inputs": [
        {
          "name": "newOwner",
          "type": "address"
        }
      ],
      "name": "transferOwnership",
      "outputs": [],
      "payable": false,
      "stateMutability": "nonpayable",
      "type": "function"
    },
    {
      "inputs": [],
      "payable": false,
      "stateMutability": "nonpayable",
      "type": "constructor"
    }
  ],
  "bytecode": "0x6060604052341561000f57600080fd5b336000806101000a81548173ffffffffffffffffffffffffffffffffffffffff021916908373ffffffffffffffffffffffffffffffffffffffff1602179055506101ce8061005e6000396000f30060606040526004361061004c576000357c0100000000000000000000000000000000000000000000000000000000900463ffffffff1680638da5cb5b14610051578063f2fde38b146100a6575b600080fd5b341561005c57600080fd5b6100646100df565b604051808273ffffffffffffffffffffffffffffffffffffffff1673ffffffffffffffffffffffffffffffffffffffff16815260200191505060405180910390f35b34156100b157600080fd5b6100dd600480803573ffffffffffffffffffffffffffffffffffffffff16906020019091905050610104565b005b6000809054906101000a900473ffffffffffffffffffffffffffffffffffffffff1681565b6000809054906101000a900473ffffffffffffffffffffffffffffffffffffffff1673ffffffffffffffffffffffffffffffffffffffff163373ffffffffffffffffffffffffffffffffffffffff1614151561015f57600080fd5b806000806101000a81548173ffffffffffffffffffffffffffffffffffffffff021916908373ffffffffffffffffffffffffffffffffffffffff160217905550505600a165627a7a7230582043123319e3ac34249b656385d598fa285e64029b5119ece323ec121aaea363bb0029",
  "source": "pragma solidity ^0.4.17;\n\ncontract owned {\n    address public owner;\n\n    function owned() {\n        owner = msg.sender;\n    }\n\n    modifier onlyOwner {\n        require(msg.sender == owner);\n        _;\n    }\n\n    function transferOwnership(address newOwner) onlyOwner {\n        owner = newOwner;\n    }\n}\n\ncontract USIcoin is owned {\n\n\tstring public name;\n\tstring public symbol;\n\tuint8 public decimals;\n\tuint256 public totalSupply;\n\n\t/* This creates an array with all balances */\n    mapping (address => uint256) public balanceOf;\n    mapping (address => bool) public approvedAccounts;\n\n    /* A function that approve accounts when owner permit that */ \n    event Approved(address target, bool status);\n\tevent Transfer(address indexed from, address indexed to, uint256 value);\n\n\t/* Initializes contract with initial supply tokens to the creator of the contract */\n    function USIcoin(uint256 initialSupply, string tokenName, string tokenSymbol, uint8 decimalUnits, address centralMinter) {\n    \tif(centralMinter != 0 ) owner = centralMinter;\n    \ttotalSupply = initialSupply;\n        balanceOf[msg.sender] = initialSupply;              // Give the creator all initial tokens\n        name = tokenName;                                   // Set the name for display purposes\n        symbol = tokenSymbol;                               // Set the symbol for display purposes\n        decimals = decimalUnits;                            // Amount of decimals for display purposes\n    }\n\n    function transfer(address _to, uint256 _value) {\n    \t/* Check if sender is approved */\n    \trequire(approvedAccounts[msg.sender]);\n        /* Check if sender has balance and for overflows */\n        require(balanceOf[msg.sender] >= _value);\n    \trequire(balanceOf[_to] + _value >= balanceOf[_to]);\n\n        /* Add and subtract new balances */\n        balanceOf[msg.sender] -= _value;\n        balanceOf[_to] += _value;\n        /* Notify anyone listening that this transfer took place */\n        Transfer(msg.sender, _to, _value);\n    }\n\n    function mintToken(address target, uint256 mintedAmount) onlyOwner {\n        balanceOf[target] += mintedAmount;\n        totalSupply += mintedAmount;\n        Transfer(0, owner, mintedAmount);\n        Transfer(owner, target, mintedAmount);\n    }\n\n    function approveAccount(address target, bool status) onlyOwner{\n    \tapprovedAccounts[target] = status;\n    \tApproved(target, status);\n    }\n\n}",
  "sourcePath": "/Users/sonnymonti/Desktop/DISTRIBUTED/Truffle/contracts/USIcoin.sol",
  "compiler": {
    "name": "solc",
    "version": "0.4.18+commit.9cf6e910.Emscripten.clang"
  },
  "schemaVersion": "1.0.1",
  "updatedAt": "2017-11-21T17:25:24.078Z"
}