{
  "contractName": "USIcoin",
  "abi": [
    {
      "constant": true,
      "inputs": [],
      "name": "name",
      "outputs": [
        {
          "name": "",
          "type": "string"
        }
      ],
      "payable": false,
      "stateMutability": "view",
      "type": "function"
    },
    {
      "constant": true,
      "inputs": [],
      "name": "totalSupply",
      "outputs": [
        {
          "name": "",
          "type": "uint256"
        }
      ],
      "payable": false,
      "stateMutability": "view",
      "type": "function"
    },
    {
      "constant": true,
      "inputs": [],
      "name": "decimals",
      "outputs": [
        {
          "name": "",
          "type": "uint8"
        }
      ],
      "payable": false,
      "stateMutability": "view",
      "type": "function"
    },
    {
      "constant": true,
      "inputs": [
        {
          "name": "",
          "type": "address"
        }
      ],
      "name": "approvedAccounts",
      "outputs": [
        {
          "name": "",
          "type": "bool"
        }
      ],
      "payable": false,
      "stateMutability": "view",
      "type": "function"
    },
    {
      "constant": false,
      "inputs": [
        {
          "name": "target",
          "type": "address"
        },
        {
          "name": "status",
          "type": "bool"
        }
      ],
      "name": "approveAccount",
      "outputs": [],
      "payable": false,
      "stateMutability": "nonpayable",
      "type": "function"
    },
    {
      "constant": true,
      "inputs": [
        {
          "name": "",
          "type": "address"
        }
      ],
      "name": "balanceOf",
      "outputs": [
        {
          "name": "",
          "type": "uint256"
        }
      ],
      "payable": false,
      "stateMutability": "view",
      "type": "function"
    },
    {
      "constant": false,
      "inputs": [
        {
          "name": "target",
          "type": "address"
        },
        {
          "name": "mintedAmount",
          "type": "uint256"
        }
      ],
      "name": "mintToken",
      "outputs": [],
      "payable": false,
      "stateMutability": "nonpayable",
      "type": "function"
    },
    {
      "constant": true,
      "inputs": [],
      "name": "owner",
      "outputs": [
        {
          "name": "",
          "type": "address"
        }
      ],
      "payable": false,
      "stateMutability": "view",
      "type": "function"
    },
    {
      "constant": true,
      "inputs": [],
      "name": "symbol",
      "outputs": [
        {
          "name": "",
          "type": "string"
        }
      ],
      "payable": false,
      "stateMutability": "view",
      "type": "function"
    },
    {
      "constant": false,
      "inputs": [
        {
          "name": "_to",
          "type": "address"
        },
        {
          "name": "_value",
          "type": "uint256"
        }
      ],
      "name": "transfer",
      "outputs": [],
      "payable": false,
      "stateMutability": "nonpayable",
      "type": "function"
    },
    {
      "constant": false,
      "inputs": [
        {
          "name": "newOwner",
          "type": "address"
        }
      ],
      "name": "transferOwnership",
      "outputs": [],
      "payable": false,
      "stateMutability": "nonpayable",
      "type": "function"
    },
    {
      "inputs": [
        {
          "name": "initialSupply",
          "type": "uint256"
        },
        {
          "name": "tokenName",
          "type": "string"
        },
        {
          "name": "tokenSymbol",
          "type": "string"
        },
        {
          "name": "decimalUnits",
          "type": "uint8"
        },
        {
          "name": "centralMinter",
          "type": "address"
        }
      ],
      "payable": false,
      "stateMutability": "nonpayable",
      "type": "constructor"
    },
    {
      "anonymous": false,
      "inputs": [
        {
          "indexed": false,
          "name": "target",
          "type": "address"
        },
        {
          "indexed": false,
          "name": "status",
          "type": "bool"
        }
      ],
      "name": "Approved",
      "type": "event"
    },
    {
      "anonymous": false,
      "inputs": [
        {
          "indexed": true,
          "name": "from",
          "type": "address"
        },
        {
          "indexed": true,
          "name": "to",
          "type": "address"
        },
        {
          "indexed": false,
          "name": "value",
          "type": "uint256"
        }
      ],
      "name": "Transfer",
      "type": "event"
    }
  ],
  "bytecode": "0x6060604052341561000f57600080fd5b604051610ded380380610ded83398101604052808051906020019091908051820191906020018051820191906020018051906020019091908051906020019091905050336000806101000a81548173ffffffffffffffffffffffffffffffffffffffff021916908373ffffffffffffffffffffffffffffffffffffffff16021790555060008173ffffffffffffffffffffffffffffffffffffffff161415156100f357806000806101000a81548173ffffffffffffffffffffffffffffffffffffffff021916908373ffffffffffffffffffffffffffffffffffffffff1602179055505b8460048190555084600560003373ffffffffffffffffffffffffffffffffffffffff1673ffffffffffffffffffffffffffffffffffffffff168152602001908152602001600020819055508360019080519060200190610154929190610191565b50826002908051906020019061016b929190610191565b5081600360006101000a81548160ff021916908360ff1602179055505050505050610236565b828054600181600116156101000203166002900490600052602060002090601f016020900481019282601f106101d257805160ff1916838001178555610200565b82800160010185558215610200579182015b828111156101ff5782518255916020019190600101906101e4565b5b50905061020d9190610211565b5090565b61023391905b8082111561022f576000816000905550600101610217565b5090565b90565b610ba8806102456000396000f3006060604052600436106100af576000357c0100000000000000000000000000000000000000000000000000000000900463ffffffff16806306fdde03146100b457806318160ddd14610142578063313ce5671461016b578063571fe9911461019a57806361e3564f146101eb57806370a082311461022f57806379c650681461027c5780638da5cb5b146102be57806395d89b4114610313578063a9059cbb146103a1578063f2fde38b146103e3575b600080fd5b34156100bf57600080fd5b6100c761041c565b6040518080602001828103825283818151815260200191508051906020019080838360005b838110156101075780820151818401526020810190506100ec565b50505050905090810190601f1680156101345780820380516001836020036101000a031916815260200191505b509250505060405180910390f35b341561014d57600080fd5b6101556104ba565b6040518082815260200191505060405180910390f35b341561017657600080fd5b61017e6104c0565b604051808260ff1660ff16815260200191505060405180910390f35b34156101a557600080fd5b6101d1600480803573ffffffffffffffffffffffffffffffffffffffff169060200190919050506104d3565b604051808215151515815260200191505060405180910390f35b34156101f657600080fd5b61022d600480803573ffffffffffffffffffffffffffffffffffffffff1690602001909190803515159060200190919050506104f3565b005b341561023a57600080fd5b610266600480803573ffffffffffffffffffffffffffffffffffffffff16906020019091905050610618565b6040518082815260200191505060405180910390f35b341561028757600080fd5b6102bc600480803573ffffffffffffffffffffffffffffffffffffffff16906020019091908035906020019091905050610630565b005b34156102c957600080fd5b6102d16107e3565b604051808273ffffffffffffffffffffffffffffffffffffffff1673ffffffffffffffffffffffffffffffffffffffff16815260200191505060405180910390f35b341561031e57600080fd5b610326610808565b6040518080602001828103825283818151815260200191508051906020019080838360005b8381101561036657808201518184015260208101905061034b565b50505050905090810190601f1680156103935780820380516001836020036101000a031916815260200191505b509250505060405180910390f35b34156103ac57600080fd5b6103e1600480803573ffffffffffffffffffffffffffffffffffffffff169060200190919080359060200190919050506108a6565b005b34156103ee57600080fd5b61041a600480803573ffffffffffffffffffffffffffffffffffffffff16906020019091905050610ade565b005b60018054600181600116156101000203166002900480601f0160208091040260200160405190810160405280929190818152602001828054600181600116156101000203166002900480156104b25780601f10610487576101008083540402835291602001916104b2565b820191906000526020600020905b81548152906001019060200180831161049557829003601f168201915b505050505081565b60045481565b600360009054906101000a900460ff1681565b60066020528060005260406000206000915054906101000a900460ff1681565b6000809054906101000a900473ffffffffffffffffffffffffffffffffffffffff1673ffffffffffffffffffffffffffffffffffffffff163373ffffffffffffffffffffffffffffffffffffffff1614151561054e57600080fd5b80600660008473ffffffffffffffffffffffffffffffffffffffff1673ffffffffffffffffffffffffffffffffffffffff16815260200190815260200160002060006101000a81548160ff0219169083151502179055507fbfb2a5467a7553002a13c4482affe6110fc4b3aa01828fb3669f5386cc62b4a38282604051808373ffffffffffffffffffffffffffffffffffffffff1673ffffffffffffffffffffffffffffffffffffffff168152602001821515151581526020019250505060405180910390a15050565b60056020528060005260406000206000915090505481565b6000809054906101000a900473ffffffffffffffffffffffffffffffffffffffff1673ffffffffffffffffffffffffffffffffffffffff163373ffffffffffffffffffffffffffffffffffffffff1614151561068b57600080fd5b80600560008473ffffffffffffffffffffffffffffffffffffffff1673ffffffffffffffffffffffffffffffffffffffff16815260200190815260200160002060008282540192505081905550806004600082825401925050819055506000809054906101000a900473ffffffffffffffffffffffffffffffffffffffff1673ffffffffffffffffffffffffffffffffffffffff1660007fddf252ad1be2c89b69c2b068fc378daa952ba7f163c4a11628f55a4df523b3ef836040518082815260200191505060405180910390a38173ffffffffffffffffffffffffffffffffffffffff166000809054906101000a900473ffffffffffffffffffffffffffffffffffffffff1673ffffffffffffffffffffffffffffffffffffffff167fddf252ad1be2c89b69c2b068fc378daa952ba7f163c4a11628f55a4df523b3ef836040518082815260200191505060405180910390a35050565b6000809054906101000a900473ffffffffffffffffffffffffffffffffffffffff1681565b60028054600181600116156101000203166002900480601f01602080910402602001604051908101604052809291908181526020018280546001816001161561010002031660029004801561089e5780601f106108735761010080835404028352916020019161089e565b820191906000526020600020905b81548152906001019060200180831161088157829003601f168201915b505050505081565b600660003373ffffffffffffffffffffffffffffffffffffffff1673ffffffffffffffffffffffffffffffffffffffff16815260200190815260200160002060009054906101000a900460ff1615156108fe57600080fd5b80600560003373ffffffffffffffffffffffffffffffffffffffff1673ffffffffffffffffffffffffffffffffffffffff168152602001908152602001600020541015151561094c57600080fd5b600560008373ffffffffffffffffffffffffffffffffffffffff1673ffffffffffffffffffffffffffffffffffffffff1681526020019081526020016000205481600560008573ffffffffffffffffffffffffffffffffffffffff1673ffffffffffffffffffffffffffffffffffffffff1681526020019081526020016000205401101515156109db57600080fd5b80600560003373ffffffffffffffffffffffffffffffffffffffff1673ffffffffffffffffffffffffffffffffffffffff1681526020019081526020016000206000828254039250508190555080600560008473ffffffffffffffffffffffffffffffffffffffff1673ffffffffffffffffffffffffffffffffffffffff168152602001908152602001600020600082825401925050819055508173ffffffffffffffffffffffffffffffffffffffff163373ffffffffffffffffffffffffffffffffffffffff167fddf252ad1be2c89b69c2b068fc378daa952ba7f163c4a11628f55a4df523b3ef836040518082815260200191505060405180910390a35050565b6000809054906101000a900473ffffffffffffffffffffffffffffffffffffffff1673ffffffffffffffffffffffffffffffffffffffff163373ffffffffffffffffffffffffffffffffffffffff16141515610b3957600080fd5b806000806101000a81548173ffffffffffffffffffffffffffffffffffffffff021916908373ffffffffffffffffffffffffffffffffffffffff160217905550505600a165627a7a723058209b4d8253670d1dbb31ca7231bc60aa4f2a5eaf24b6d96f3ae12865541d9ac0f10029",
  "source": "pragma solidity ^0.4.17;\n\ncontract owned {\n    address public owner;\n\n    function owned() {\n        owner = msg.sender;\n    }\n\n    modifier onlyOwner {\n        require(msg.sender == owner);\n        _;\n    }\n\n    function transferOwnership(address newOwner) onlyOwner {\n        owner = newOwner;\n    }\n}\n\ncontract USIcoin is owned {\n\n\tstring public name;\n\tstring public symbol;\n\tuint8 public decimals;\n\tuint256 public totalSupply;\n\n\t/* This creates an array with all balances */\n    mapping (address => uint256) public balanceOf;\n    mapping (address => bool) public approvedAccounts;\n\n    /* A function that approve accounts when owner permit that */ \n    event Approved(address target, bool status);\n\tevent Transfer(address indexed from, address indexed to, uint256 value);\n\n\t/* Initializes contract with initial supply tokens to the creator of the contract */\n    function USIcoin(uint256 initialSupply, string tokenName, string tokenSymbol, uint8 decimalUnits, address centralMinter) {\n    \tif(centralMinter != 0 ) owner = centralMinter;\n    \ttotalSupply = initialSupply;\n        balanceOf[msg.sender] = initialSupply;              // Give the creator all initial tokens\n        name = tokenName;                                   // Set the name for display purposes\n        symbol = tokenSymbol;                               // Set the symbol for display purposes\n        decimals = decimalUnits;                            // Amount of decimals for display purposes\n    }\n\n    function transfer(address _to, uint256 _value) {\n    \t/* Check if sender is approved */\n    \trequire(approvedAccounts[msg.sender]);\n        /* Check if sender has balance and for overflows */\n        require(balanceOf[msg.sender] >= _value);\n    \trequire(balanceOf[_to] + _value >= balanceOf[_to]);\n\n        /* Add and subtract new balances */\n        balanceOf[msg.sender] -= _value;\n        balanceOf[_to] += _value;\n        /* Notify anyone listening that this transfer took place */\n        Transfer(msg.sender, _to, _value);\n    }\n\n    function mintToken(address target, uint256 mintedAmount) onlyOwner {\n        balanceOf[target] += mintedAmount;\n        totalSupply += mintedAmount;\n        Transfer(0, owner, mintedAmount);\n        Transfer(owner, target, mintedAmount);\n    }\n\n    function approveAccount(address target, bool status) onlyOwner{\n    \tapprovedAccounts[target] = status;\n    \tApproved(target, status);\n    }\n\n}",
  "sourcePath": "/Users/sonnymonti/Desktop/DISTRIBUTED/Truffle/contracts/USIcoin.sol",
  "compiler": {
    "name": "solc",
    "version": "0.4.18+commit.9cf6e910.Emscripten.clang"
  },
  "schemaVersion": "1.0.1",
  "updatedAt": "2017-11-21T17:25:24.072Z"
}